:100000000200AF80358C228D238015758CD8758ABF
:10001000F0D28C8000308D02800280F9C28DC28CBB
:10002000AC22E523FD152370021522ED24FFEC64BC
:1000300080347F4002800280D22280C9801F8C20C1
:100040008D2180077C007D64120003AA20E5211524
:1000500021700215204A7002800280E82280DF8031
:10006000387589017590067C007D0112003C759001
:10007000607C007D0112003C7590017C007D0312C4
:10008000003C7590187C007D0512003C7590807CCA
:10009000007D0712003C80CC2280C6E4F5D075813B
:1000A00024F520F521F522F52312005F020000025D
:0200B000009BB3
:00000001FF
