:100000000200CBE5836003E49322A882E622E58325
:100010006004E4938003A882E6F822E5836004E4A8
:10002000938003A882E6F922E5836004E4938003C9
:10003000A882E6FA22E5836004E4938003A882E6BE
:10004000FB22E5836004E4938003A882E6FC22E5BA
:10005000836004E4938003A882E6FD22E5836004C4
:10006000E4938003A882E6FE22E5836004E49380A3
:1000700003A882E6FF22898288838B00EC4D6036DC
:10008000E4E0F608A31DBDFFF31C80F0B800118B5F
:1000900000EC4D6021E7F609081DBDFFF41C80F15E
:1000A000898288838B00EC4D600CE493F608A31DD5
:1000B000BDFFF31C80F022E4F5D075813678207AFC
:0E00C00016F608DAFC1201D80200000200B7A2
:10010000A6ACAAA8A0A2A6B3A000B2BFA8A6A2A00F
:10011000008057E4F532F533E53324FCE53234FF53
:100120005002800280028041E4F534F535E5352443
:10013000FEE53434FF50028002800280160535E56A
:100140003570020534E53524FEE53434FF50028075
:100150000280EA0533E53370020532E53324FCE51D
:100160003234FF5002800280BF2280A780098D8038
:1001700075A00175A0002280F580098D8075A0030F
:1001800075A0022280F580268C328D338014853252
:100190008385338212004F1201790533E5337002F3
:1001A000053285328385338212000370E12280D8C4
:1001B00080248D33E53324C0FD12016C7532008B31
:1001C0003480077D201201790532E532C395344031
:1001D00002800280EE2280DA806B780179007A005A
:1001E0007B217D0A7C0012008C7801790A7A007BE1
:1001F0002B7D077C0012008C7D3812016C7D0E1265
:10020000016C7D0112016C7D8712016C7C007D21E7
:10021000120186752000E52024C0FD12016C7C00CF
:100220007D2B1201861201117B06AD201201B074E4
:10023000022520F520E52024F1500280028003757C
:07024000200080D222809310
:00000001FF
