:100000000201A3020181752000752101752200758E
:1000100023007524007525007526007527007528B6
:1000200000900198E493F5A0E5907A0130E0011A80
:10003000EAF525E52514700A8000E52670048000A5
:1000400080048000803CE4F529F52AE52A249CE51B
:100050002934FF5002800280028016052AE52A70AA
:10006000020529E52A249CE52934FF5002800280FC
:10007000EAE59020E00C75200075240075230075DA
:100080002201852526E5B07A0130E0011AEAF5273C
:10009000E52714700A8000E5287004800080048041
:1000A000008046E4F529F52AE52A249CE52934FF59
:1000B0005002800280028016052AE52A7002052976
:1000C000E52A249CE52934FF5002800280EAE5B04D
:1000D00020E016E5237A0160011AEAF523E52360A2
:1000E000058520248003852420852728E522600AB1
:1000F0008000E52370048000800480008048E520B3
:1001000090019893F5A0E4F529F52AE52A249CE5C9
:100110002934FF5002800280028016052AE52A70E9
:10012000020529E52A249CE52934FF50028002803B
:10013000EAE5212520F520E52024F6500280028002
:10014000037520008037E5236033E5249001989300
:10015000F5A0E4F529F52AE52A249CE52934FF5089
:1001600002800280028016052AE52A70020529E530
:100170002A249CE52934FF5002800280EA020028EC
:1001800022020006E4F5D075812B78207A0BF60860
:10019000DAFC120003020000C0F9A4B0999282F8C0
:0601A0008090FF020184C3
:00000001FF
