:1000000002008B801B758901758CFF758A06C28D75
:10001000D28C8000308D02800280F9C28CC28D2289
:1000200080E38055752150752000800B85219074E8
:10003000022521F5210520E52024E05002800280E0
:10004000EB7590B37521B3752000800B852190E589
:100050002124FEF5210520E52024ED5002800280B8
:10006000EB852190759050120003759028120003C3
:1000700012000375905080AC2280A9E4F5D0758100
:0E00800022F520F52112002202000002007B72
:00000001FF
