:1000000002008AE5836003E49322A882E622E58366
:100010006004E4938003A882E6F822E5836004E4A8
:10002000938003A882E6F922E5836004E4938003C9
:10003000A882E6FA22E5836004E4938003A882E6BE
:10004000FB22E5836004E4938003A882E6FC22E5BA
:10005000836004E4938003A882E6FD22E5836004C4
:10006000E4938003A882E6FE22E5836004E49380A3
:1000700003A882E6FF22E4F5D075812778207A076D
:0D008000F608DAFC120260020000020076B1
:1001000043616C63756C61746F723A008005D2A0B4
:10011000C2A02280F9800A8D80C2A1C2A212010C65
:100120002280F4800A8D80D2A1C2A212010C22800A
:10013000F480157D381201157D0C1201157D061213
:1001400001157D011201152280E980258C258D265F
:10015000801385258385268212004FA385832585FC
:10016000822612012385258385268212000370E2F0
:100170002280D902025D7590EFE590540FF525E5D8
:100180002524F1600280028028E525B40E057B312C
:1001900002025CE525B40D057B3402025CE525B462
:1001A0000B057B3702025CE525B407057B2A0202BA
:1001B0005C7590DFE590540FF525E52524F160028C
:1001C00080028026E525B40E057B3202025CE5251F
:1001D000B40D057B3502025CE525B40B047B388049
:1001E0007BE525B407047B3080727590BFE59054A1
:1001F0000FF525E52524F1600280028024E525B471
:100200000E047B338056E525B40D047B36804DE526
:1002100025B40B047B398044E525B407047B238097
:100220003B75907FE590540FF525E52524F160029C
:1002300080028024E525B40E047B41801FE525B4AF
:100240000D047B428016E525B40B047B43800DE54D
:1002500025B407047B4480047B00800022020176E1
:1002600080697523007524001201317C017D001224
:10027000014A7DC0120115120173EBF5220521E53B
:100280002170020520E522600B8000E522B52302E3
:1002900080028002800EE52124F5E52034FF500421
:1002A0008000800480008019E52424F04002800250
:1002B0008007AD221201230524852223E4F520F5D1
:0D02C00021E522700375230080AD2280959A
:00000001FF
